:100000000C942A000C943C000C943C000C943C0092
:100010000C943C000C943C000C943C000C943C0070
:100020000C943C000C943C000C943C000C943C0060
:100030000C943C000C943C000C943C000C943C0050
:100040000C943C000C943C000C943C000C943C0040
:100050000C943C0011241FBECFE5D8E0DEBFCDBF1D
:1000600010E0A0E6B0E001C01D92A336B107E1F7B1
:100070000E9484040C9496040C940000DF93CF93A8
:1000800000D000D000D0CDB7DEB789836A838A81E3
:10009000813099F58981282F30E03E832D838D8131
:1000A0009E8181309105D1F02D813E812230310534
:1000B0002CF48D819E81009761F050C02D813E818E
:1000C0002230310581F08D819E818330910581F050
:1000D00045C0EAE3F0E08FEF808340C0E7E3F0E063
:1000E0008FEF80833BC0E4E3F0E08FEF808336C086
:1000F000E1E3F0E08FEF808331C08A81882371F5DE
:100100008981282F30E03C832B838B819C81813037
:100110009105C9F02B813C81223031052CF48B8173
:100120009C81009761F01AC02B813C8122303105FF
:1001300071F08B819C818330910569F00FC0EAE3F7
:10014000F0E010820BC0E7E3F0E0108207C0E4E3C8
:10015000F0E0108203C0E1E3F0E0108226960FB6D3
:10016000F894DEBF0FBECDBFCF91DF910895DF932E
:10017000CF9300D000D0CDB7DEB789836A83898161
:10018000282F30E03C832B838B819C81813091052B
:10019000D1F02B813C81223031052CF48B819C8164
:1001A000009761F01EC02B813C812230310581F027
:1001B0008B819C818330910581F013C0EBE3F0E0EB
:1001C0008A8180830EC0E8E3F0E08A81808309C0E1
:1001D000E5E3F0E08A81808304C0E2E3F0E08A8115
:1001E00080830F900F900F900F90CF91DF91089523
:1001F000DF93CF93CDB7DEB727970FB6F894DEBF66
:100200000FBECDBF89836A834B838B81813009F018
:100210006FC08981282F30E03F832E838E819F819C
:100220008130910549F12E813F81223031052CF436
:100230008E819F81009761F0D2C02E813F81223054
:10024000310571F18E819F8183309105E9F1C7C03D
:10025000AAE3B0E0EAE3F0E08081482F8A81282F0A
:1002600030E081E090E0022E02C0880F991F0A94CE
:10027000E2F7842B8C93B3C0A7E3B0E0E7E3F0E0B0
:100280008081482F8A81282F30E081E090E0022E83
:1002900002C0880F991F0A94E2F7842B8C939FC0A9
:1002A000A4E3B0E0E4E3F0E08081482F8A81282FC6
:1002B00030E081E090E0022E02C0880F991F0A947E
:1002C000E2F7842B8C938BC0A1E3B0E0E1E3F0E094
:1002D0008081482F8A81282F30E081E090E0022E33
:1002E00002C0880F991F0A94E2F7842B8C9377C081
:1002F0008B81882309F073C08981282F30E03D83EA
:100300002C838C819D818130910559F12C813D8117
:10031000223031052CF48C819D81009769F05FC0FB
:100320002C813D812230310589F18C819D81833082
:10033000910509F440C053C0AAE3B0E0EAE3F0E05D
:100340008081482F8A81282F30E081E090E0022EC2
:1003500002C0880F991F0A94E2F7809584238C933A
:100360003EC0A7E3B0E0E7E3F0E08081482F8A8158
:10037000282F30E081E090E0022E02C0880F991F04
:100380000A94E2F7809584238C9329C0A4E3B0E01B
:10039000E4E3F0E08081482F8A81282F30E081E07B
:1003A00090E0022E02C0880F991F0A94E2F7809510
:1003B00084238C9314C0A1E3B0E0E1E3F0E08081FA
:1003C000482F8A81282F30E081E090E0022E02C081
:1003D000880F991F0A94E2F7809584238C932796BF
:1003E0000FB6F894DEBF0FBECDBFCF91DF91089559
:1003F000DF93CF93CDB7DEB727970FB6F894DEBF64
:100400000FBECDBF89836A834B838B81813009F016
:100410006FC08981282F30E03F832E838E819F819A
:100420008130910549F12E813F81223031052CF434
:100430008E819F81009761F0D2C02E813F81223052
:10044000310571F18E819F8183309105E9F1C7C03B
:10045000ABE3B0E0EBE3F0E08081482F8A81282F06
:1004600030E081E090E0022E02C0880F991F0A94CC
:10047000E2F7842B8C93B3C0A8E3B0E0E8E3F0E0AC
:100480008081482F8A81282F30E081E090E0022E81
:1004900002C0880F991F0A94E2F7842B8C939FC0A7
:1004A000A5E3B0E0E5E3F0E08081482F8A81282FC2
:1004B00030E081E090E0022E02C0880F991F0A947C
:1004C000E2F7842B8C938BC0A2E3B0E0E2E3F0E090
:1004D0008081482F8A81282F30E081E090E0022E31
:1004E00002C0880F991F0A94E2F7842B8C9377C07F
:1004F0008B81882309F073C08981282F30E03D83E8
:100500002C838C819D818130910559F12C813D8115
:10051000223031052CF48C819D81009769F05FC0F9
:100520002C813D812230310589F18C819D81833080
:10053000910509F440C053C0ABE3B0E0EBE3F0E059
:100540008081482F8A81282F30E081E090E0022EC0
:1005500002C0880F991F0A94E2F7809584238C9338
:100560003EC0A8E3B0E0E8E3F0E08081482F8A8154
:10057000282F30E081E090E0022E02C0880F991F02
:100580000A94E2F7809584238C9329C0A5E3B0E018
:10059000E5E3F0E08081482F8A81282F30E081E078
:1005A00090E0022E02C0880F991F0A94E2F780950E
:1005B00084238C9314C0A2E3B0E0E2E3F0E08081F6
:1005C000482F8A81282F30E081E090E0022E02C07F
:1005D000880F991F0A94E2F7809584238C932796BD
:1005E0000FB6F894DEBF0FBECDBFCF91DF91089557
:1005F000DF93CF9300D000D00F92CDB7DEB78A83C0
:100600006B8319828A81282F30E03D832C834C81B3
:100610005D814130510541F18C819D818230910590
:1006200034F42C813D812115310561F052C04C819B
:100630005D814230510551F18C819D81833091055E
:10064000B9F147C0E9E3F0E08081282F30E08B81E9
:10065000882F90E0A90102C0559547958A95E2F749
:10066000CA018170898335C0E6E3F0E08081282FDC
:1006700030E08B81882F90E0A90102C05595479505
:100680008A95E2F7CA018170898323C0E3E3F0E031
:100690008081282F30E08B81882F90E0A90102C053
:1006A000559547958A95E2F7CA018170898311C0F3
:1006B000E0E3F0E08081282F30E08B81882F90E00C
:1006C000A90102C0559547958A95E2F7CA01817044
:1006D000898389810F900F900F900F900F90CF9189
:1006E000DF910895DF93CF93CDB7DEB783E060E06D
:1006F00040E00E94F80083E061E041E00E94F800E1
:10070000E9E2F0E01082E9E2F0E083E38083E0E4F4
:10071000F0E010828091610084608093610080919C
:100720006200846080936200809162008093620026
:1007300080916200809362008091610080936100EB
:100740008091610088608093610080916100886180
:1007500080936100EAE2F0E0809161008083809103
:100760006200806880936200E0E4F0E080916200C3
:100770008083CF91DF910895DF93CF9300D0CDB7E1
:10078000DEB79A838983EBE2F0E0808182958695DB
:1007900087708823C1F3AAE2B0E0EAE2F0E02081AA
:1007A00089819A81892F99278170822B8C93ECE221
:1007B000F0E0898180830F900F90CF91DF910895B1
:1007C000DF93CF9300D0CDB7DEB7EBE2F0E08081CE
:1007D0008823DCF71A821982EAE2F0E080818695AC
:1007E000882F90E09C0120703170ECE2F0E0808175
:1007F000882F90E0822B932B9C0189819A81822BF8
:10080000932B9A83898389819A810F900F90CF913E
:10081000DF910895DF93CF9300D0CDB7DEB79A83F1
:100820008983AAE2B0E0EAE2F0E0808181608C9303
:1008300089819A810E94BC030F900F90CF91DF9124
:100840000895DF93CF9300D0CDB7DEB79A83898325
:10085000AAE2B0E0EAE2F0E080818E7F8C938981A9
:100860009A810E94BC030F900F90CF91DF91089561
:10087000DF93CF9300D000D0CDB7DEB70E94E00366
:100880008B30910561F410926000ABE2B0E0EBE2D6
:10089000F0E0808181608C931C821B822CC00E94BE
:1008A000E0031A828130910511F481E08A838091FE
:1008B00060001982813011F491E099838A819981D5
:1008C000892B882379F0ABE2B0E0EBE2F0E08081A5
:1008D0008E7F8C9381E0809360000E94E0039C8374
:1008E0008B8309C0ABE2B0E0EBE2F0E08081816095
:1008F0008C931C821B828B819C810F900F900F9098
:100900000F90CF91DF910895DF93CF930F92CDB7E2
:10091000DEB7198280E067E041E00E94F8000E94A3
:1009200072030E94E0030E94BC03FBCFF894FFCF48
:00000001FF
